{
  "address": "0xA1E02e9EdCCCea859F834dF0847a776cA5776d36",
  "abi": [
    {
      "inputs": [
        {
          "internalType": "address",
          "name": "_relayTransit",
          "type": "address"
        }
      ],
      "stateMutability": "nonpayable",
      "type": "constructor"
    },
    {
      "anonymous": false,
      "inputs": [
        {
          "indexed": false,
          "internalType": "uint256",
          "name": "balance",
          "type": "uint256"
        }
      ],
      "name": "GetBalance",
      "type": "event"
    },
    {
      "anonymous": false,
      "inputs": [
        {
          "indexed": false,
          "internalType": "uint256",
          "name": "newCounterValue",
          "type": "uint256"
        }
      ],
      "name": "IncrementCounter",
      "type": "event"
    },
    {
      "inputs": [],
      "name": "counter",
      "outputs": [
        {
          "internalType": "uint256",
          "name": "",
          "type": "uint256"
        }
      ],
      "stateMutability": "view",
      "type": "function"
    },
    {
      "inputs": [],
      "name": "getBalance",
      "outputs": [],
      "stateMutability": "nonpayable",
      "type": "function"
    },
    {
      "inputs": [
        {
          "internalType": "uint256",
          "name": "_fee",
          "type": "uint256"
        }
      ],
      "name": "increment",
      "outputs": [],
      "stateMutability": "nonpayable",
      "type": "function"
    },
    {
      "inputs": [],
      "name": "relayTransit",
      "outputs": [
        {
          "internalType": "address",
          "name": "",
          "type": "address"
        }
      ],
      "stateMutability": "view",
      "type": "function"
    }
  ],
  "transactionHash": "0x6cd90493bb5266a192cc9990976ed14f26a4422b957e00da3694e6ee26bfdfc9",
  "args": [
    "0xFbf1CA2be769b79BE01e48F509107dcACb9ae11b"
  ],
  "numDeployments": 2,
  "solcInputHash": "5d89f4163518a8e56bcf0f57429ee1f1",
  "bytecode": "0x60a060405234801561001057600080fd5b506040516104a93803806104a983398101604081905261002f91610040565b6001600160a01b0316608052610070565b60006020828403121561005257600080fd5b81516001600160a01b038116811461006957600080fd5b9392505050565b60805161041861009160003960008181608f015261012301526104186000f3fe608060405234801561001057600080fd5b506004361061004c5760003560e01c806312065fe01461005157806361bc221a1461005b5780637cf5dab014610077578063bf5b25841461008a575b600080fd5b6100596100d6565b005b61006460005481565b6040519081526020015b60405180910390f35b61005961008536600461036a565b61010b565b6100b17f000000000000000000000000000000000000000000000000000000000000000081565b60405173ffffffffffffffffffffffffffffffffffffffff909116815260200161006e565b6040514781527fc3c09a1e56969c59209cb6368be0ce64266343fd870df00b9a6a4e3852c10aba9060200160405180910390a1565b3373ffffffffffffffffffffffffffffffffffffffff7f000000000000000000000000000000000000000000000000000000000000000016146101af576040517f08c379a000000000000000000000000000000000000000000000000000000000815260206004820152601060248201527f4f6e6c7952656c61795472616e7369740000000000000000000000000000000060448201526064015b60405180910390fd5b6101b9338261020b565b6000805490806101c883610383565b91905055507f4382a1e4a9e9231ff550d61caf84a106bd15d21a9b153c49ad2cafbc97a7d35060005460405161020091815260200190565b60405180910390a150565b80471015610275576040517f08c379a000000000000000000000000000000000000000000000000000000000815260206004820152601d60248201527f416464726573733a20696e73756666696369656e742062616c616e636500000060448201526064016101a6565b60008273ffffffffffffffffffffffffffffffffffffffff168260405160006040518083038185875af1925050503d80600081146102cf576040519150601f19603f3d011682016040523d82523d6000602084013e6102d4565b606091505b5050905080610365576040517f08c379a000000000000000000000000000000000000000000000000000000000815260206004820152603a60248201527f416464726573733a20756e61626c6520746f2073656e642076616c75652c207260448201527f6563697069656e74206d6179206861766520726576657274656400000000000060648201526084016101a6565b505050565b60006020828403121561037c57600080fd5b5035919050565b60007fffffffffffffffffffffffffffffffffffffffffffffffffffffffffffffffff82036103db577f4e487b7100000000000000000000000000000000000000000000000000000000600052601160045260246000fd5b506001019056fea26469706673582212208f5ea98c94ed9634a2d1767fbbfe066320196fa68b6a3d8d63331bcc6bccbfea64736f6c63430008110033",
  "devdoc": {
    "kind": "dev",
    "methods": {},
    "version": 1
  },
  "userdoc": {
    "kind": "user",
    "methods": {},
    "version": 1
  },
  "storageLayout": {
    "storage": [
      {
        "astId": 1819,
        "contract": "contracts/CounterV0.sol:CounterV0",
        "label": "counter",
        "offset": 0,
        "slot": "0",
        "type": "t_uint256"
      }
    ],
    "types": {
      "t_uint256": {
        "encoding": "inplace",
        "label": "uint256",
        "numberOfBytes": "32"
      }
    }
  }
}