{
  "address": "0x662b36Ee1272C0b222668737aa6Bb4Bc0C34b464",
  "abi": [
    {
      "anonymous": false,
      "inputs": [],
      "name": "IncrementCounter",
      "type": "event"
    },
    {
      "inputs": [],
      "name": "counter",
      "outputs": [
        {
          "internalType": "uint256",
          "name": "",
          "type": "uint256"
        }
      ],
      "stateMutability": "view",
      "type": "function"
    },
    {
      "inputs": [],
      "name": "currentCounter",
      "outputs": [
        {
          "internalType": "uint256",
          "name": "",
          "type": "uint256"
        }
      ],
      "stateMutability": "view",
      "type": "function"
    },
    {
      "inputs": [],
      "name": "increment",
      "outputs": [],
      "stateMutability": "nonpayable",
      "type": "function"
    }
  ],
  "transactionHash": "0x10642c4d87e28809b9320594862b1abe8b46e77f48e45832752f82ab75bc8cc5",
  "args": [],
  "numDeployments": 1,
  "solcInputHash": "7d16b95422fc0710d074fb191a701fba",
  "bytecode": "0x608060405234801561001057600080fd5b5061091d806100206000396000f3fe608060405234801561001057600080fd5b50600436106100415760003560e01c80635763440b1461004657806361bc221a1461005c578063d09de08a14610065575b600080fd5b6000545b60405190815260200160405180910390f35b61004a60005481565b61006d61006f565b005b73abcc9b596420a9e9172fd5938620e265a0f9df923314610117576040517f08c379a000000000000000000000000000000000000000000000000000000000815260206004820152602260248201527f47656c61746f52656c6179436f6e746578742e6f6e6c7947656c61746f52656c60448201527f617900000000000000000000000000000000000000000000000000000000000060648201526084015b60405180910390fd5b61011f610161565b6001600080828254610131919061078f565b90915550506040517f0ffca1dde64f1b803c88b9de47f8a44a693a20f2bd177e5f2592cffb738bd7d990600090a1565b61019961016c61019b565b6101746101c7565b61017c6101ee565b73ffffffffffffffffffffffffffffffffffffffff1691906101fd565b565b600080366101aa6060826107a8565b6101b59282906107bb565b8101906101c291906107e5565b905090565b600080366101d66020826107a8565b6101e19282906107bb565b8101906101c2919061081b565b600080366101aa6040826107a8565b8060000361020a57505050565b73ffffffffffffffffffffffffffffffffffffffff831673eeeeeeeeeeeeeeeeeeeeeeeeeeeeeeeeeeeeeeee146102615761025c73ffffffffffffffffffffffffffffffffffffffff8416838361026b565b505050565b61025c82826102f8565b6040805173ffffffffffffffffffffffffffffffffffffffff8416602482015260448082018490528251808303909101815260649091019091526020810180517bffffffffffffffffffffffffffffffffffffffffffffffffffffffff167fa9059cbb0000000000000000000000000000000000000000000000000000000017905261025c908490610452565b80471015610362576040517f08c379a000000000000000000000000000000000000000000000000000000000815260206004820152601d60248201527f416464726573733a20696e73756666696369656e742062616c616e6365000000604482015260640161010e565b60008273ffffffffffffffffffffffffffffffffffffffff168260405160006040518083038185875af1925050503d80600081146103bc576040519150601f19603f3d011682016040523d82523d6000602084013e6103c1565b606091505b505090508061025c576040517f08c379a000000000000000000000000000000000000000000000000000000000815260206004820152603a60248201527f416464726573733a20756e61626c6520746f2073656e642076616c75652c207260448201527f6563697069656e74206d61792068617665207265766572746564000000000000606482015260840161010e565b60006104b4826040518060400160405280602081526020017f5361666545524332303a206c6f772d6c6576656c2063616c6c206661696c65648152508573ffffffffffffffffffffffffffffffffffffffff1661055e9092919063ffffffff16565b80519091501561025c57808060200190518101906104d29190610834565b61025c576040517f08c379a000000000000000000000000000000000000000000000000000000000815260206004820152602a60248201527f5361666545524332303a204552433230206f7065726174696f6e20646964206e60448201527f6f74207375636365656400000000000000000000000000000000000000000000606482015260840161010e565b606061056d8484600085610577565b90505b9392505050565b606082471015610609576040517f08c379a000000000000000000000000000000000000000000000000000000000815260206004820152602660248201527f416464726573733a20696e73756666696369656e742062616c616e636520666f60448201527f722063616c6c0000000000000000000000000000000000000000000000000000606482015260840161010e565b73ffffffffffffffffffffffffffffffffffffffff85163b610687576040517f08c379a000000000000000000000000000000000000000000000000000000000815260206004820152601d60248201527f416464726573733a2063616c6c20746f206e6f6e2d636f6e7472616374000000604482015260640161010e565b6000808673ffffffffffffffffffffffffffffffffffffffff1685876040516106b0919061087a565b60006040518083038185875af1925050503d80600081146106ed576040519150601f19603f3d011682016040523d82523d6000602084013e6106f2565b606091505b509150915061070282828661070d565b979650505050505050565b6060831561071c575081610570565b82511561072c5782518084602001fd5b816040517f08c379a000000000000000000000000000000000000000000000000000000000815260040161010e9190610896565b7f4e487b7100000000000000000000000000000000000000000000000000000000600052601160045260246000fd5b808201808211156107a2576107a2610760565b92915050565b818103818111156107a2576107a2610760565b600080858511156107cb57600080fd5b838611156107d857600080fd5b5050820193919092039150565b6000602082840312156107f757600080fd5b813573ffffffffffffffffffffffffffffffffffffffff8116811461057057600080fd5b60006020828403121561082d57600080fd5b5035919050565b60006020828403121561084657600080fd5b8151801515811461057057600080fd5b60005b83811015610871578181015183820152602001610859565b50506000910152565b6000825161088c818460208701610856565b9190910192915050565b60208152600082518060208401526108b5816040850160208701610856565b601f017fffffffffffffffffffffffffffffffffffffffffffffffffffffffffffffffe016919091016040019291505056fea2646970667358221220a8edf8f41ec45c5b2812dccf87b6c427b0eff20bced126080bc623e8c5d2dd9664736f6c63430008100033",
  "devdoc": {
    "kind": "dev",
    "methods": {},
    "version": 1
  },
  "userdoc": {
    "kind": "user",
    "methods": {},
    "version": 1
  },
  "storageLayout": {
    "storage": [
      {
        "astId": 1706,
        "contract": "contracts/Counter.sol:Counter",
        "label": "counter",
        "offset": 0,
        "slot": "0",
        "type": "t_uint256"
      }
    ],
    "types": {
      "t_uint256": {
        "encoding": "inplace",
        "label": "uint256",
        "numberOfBytes": "32"
      }
    }
  }
}