{
  "address": "0x48C18e49Ae29EB1eddF242ab80FE038A67327F31",
  "abi": [
    {
      "inputs": [
        {
          "internalType": "address",
          "name": "relayer",
          "type": "address"
        }
      ],
      "stateMutability": "nonpayable",
      "type": "constructor"
    },
    {
      "anonymous": false,
      "inputs": [
        {
          "indexed": true,
          "internalType": "uint256",
          "name": "by",
          "type": "uint256"
        }
      ],
      "name": "IncrementCounter",
      "type": "event"
    },
    {
      "inputs": [],
      "name": "count",
      "outputs": [
        {
          "internalType": "uint256",
          "name": "",
          "type": "uint256"
        }
      ],
      "stateMutability": "view",
      "type": "function"
    },
    {
      "inputs": [],
      "name": "current",
      "outputs": [
        {
          "internalType": "uint256",
          "name": "",
          "type": "uint256"
        }
      ],
      "stateMutability": "view",
      "type": "function"
    },
    {
      "inputs": [
        {
          "internalType": "uint256",
          "name": "_by",
          "type": "uint256"
        }
      ],
      "name": "incrementCounter",
      "outputs": [],
      "stateMutability": "nonpayable",
      "type": "function"
    },
    {
      "inputs": [],
      "name": "relayer",
      "outputs": [
        {
          "internalType": "address",
          "name": "",
          "type": "address"
        }
      ],
      "stateMutability": "view",
      "type": "function"
    }
  ],
  "transactionHash": "0x621bba2e62ded622325114e140689841437eb2525b8fb63f726682db1b75fcbd",
  "args": [
    "0xaBcC9b596420A9E9172FD5938620E265a0f9Df92"
  ],
  "numDeployments": 2,
  "solcInputHash": "bcfc6285a30af8ac0d476d652a78df93",
  "bytecode": "0x60a060405234801561001057600080fd5b50604051610a12380380610a1283398101604081905261002f91610040565b6001600160a01b0316608052610070565b60006020828403121561005257600080fd5b81516001600160a01b038116811461006957600080fd5b9392505050565b608051610982610090600039600081816087015260d801526109826000f3fe608060405234801561001057600080fd5b506004361061004c5760003560e01c806306661abd146100515780636abbb3b41461006d5780638406c079146100825780639fa6a6e3146100ce575b600080fd5b61005a60005481565b6040519081526020015b60405180910390f35b61008061007b3660046107c5565b6100d6565b005b6100a97f000000000000000000000000000000000000000000000000000000000000000081565b60405173ffffffffffffffffffffffffffffffffffffffff9091168152602001610064565b60005461005a565b7f000000000000000000000000000000000000000000000000000000000000000073ffffffffffffffffffffffffffffffffffffffff16331461017a576040517f08c379a000000000000000000000000000000000000000000000000000000000815260206004820152601a60248201527f52656c61796572436f6e746578742e6f6e6c7952656c6179657200000000000060448201526064015b60405180910390fd5b6101826101c6565b80600080828254610193919061080d565b909155505060405181907f4382a1e4a9e9231ff550d61caf84a106bd15d21a9b153c49ad2cafbc97a7d35090600090a250565b6101fe6101d1610200565b6101d961022c565b6101e1610253565b73ffffffffffffffffffffffffffffffffffffffff169190610262565b565b6000803661020f606082610826565b61021a928290610839565b8101906102279190610863565b905090565b6000803661023b602082610826565b610246928290610839565b81019061022791906107c5565b6000803661020f604082610826565b8060000361026f57505050565b73ffffffffffffffffffffffffffffffffffffffff831673eeeeeeeeeeeeeeeeeeeeeeeeeeeeeeeeeeeeeeee146102c6576102c173ffffffffffffffffffffffffffffffffffffffff841683836102d0565b505050565b6102c1828261035d565b6040805173ffffffffffffffffffffffffffffffffffffffff8416602482015260448082018490528251808303909101815260649091019091526020810180517bffffffffffffffffffffffffffffffffffffffffffffffffffffffff167fa9059cbb000000000000000000000000000000000000000000000000000000001790526102c19084906104b7565b804710156103c7576040517f08c379a000000000000000000000000000000000000000000000000000000000815260206004820152601d60248201527f416464726573733a20696e73756666696369656e742062616c616e63650000006044820152606401610171565b60008273ffffffffffffffffffffffffffffffffffffffff168260405160006040518083038185875af1925050503d8060008114610421576040519150601f19603f3d011682016040523d82523d6000602084013e610426565b606091505b50509050806102c1576040517f08c379a000000000000000000000000000000000000000000000000000000000815260206004820152603a60248201527f416464726573733a20756e61626c6520746f2073656e642076616c75652c207260448201527f6563697069656e74206d617920686176652072657665727465640000000000006064820152608401610171565b6000610519826040518060400160405280602081526020017f5361666545524332303a206c6f772d6c6576656c2063616c6c206661696c65648152508573ffffffffffffffffffffffffffffffffffffffff166105c39092919063ffffffff16565b8051909150156102c157808060200190518101906105379190610899565b6102c1576040517f08c379a000000000000000000000000000000000000000000000000000000000815260206004820152602a60248201527f5361666545524332303a204552433230206f7065726174696f6e20646964206e60448201527f6f742073756363656564000000000000000000000000000000000000000000006064820152608401610171565b60606105d284846000856105dc565b90505b9392505050565b60608247101561066e576040517f08c379a000000000000000000000000000000000000000000000000000000000815260206004820152602660248201527f416464726573733a20696e73756666696369656e742062616c616e636520666f60448201527f722063616c6c00000000000000000000000000000000000000000000000000006064820152608401610171565b73ffffffffffffffffffffffffffffffffffffffff85163b6106ec576040517f08c379a000000000000000000000000000000000000000000000000000000000815260206004820152601d60248201527f416464726573733a2063616c6c20746f206e6f6e2d636f6e74726163740000006044820152606401610171565b6000808673ffffffffffffffffffffffffffffffffffffffff16858760405161071591906108df565b60006040518083038185875af1925050503d8060008114610752576040519150601f19603f3d011682016040523d82523d6000602084013e610757565b606091505b5091509150610767828286610772565b979650505050505050565b606083156107815750816105d5565b8251156107915782518084602001fd5b816040517f08c379a000000000000000000000000000000000000000000000000000000000815260040161017191906108fb565b6000602082840312156107d757600080fd5b5035919050565b7f4e487b7100000000000000000000000000000000000000000000000000000000600052601160045260246000fd5b80820180821115610820576108206107de565b92915050565b81810381811115610820576108206107de565b6000808585111561084957600080fd5b8386111561085657600080fd5b5050820193919092039150565b60006020828403121561087557600080fd5b813573ffffffffffffffffffffffffffffffffffffffff811681146105d557600080fd5b6000602082840312156108ab57600080fd5b815180151581146105d557600080fd5b60005b838110156108d65781810151838201526020016108be565b50506000910152565b600082516108f18184602087016108bb565b9190910192915050565b602081526000825180602084015261091a8160408501602087016108bb565b601f017fffffffffffffffffffffffffffffffffffffffffffffffffffffffffffffffe016919091016040019291505056fea26469706673582212202716ecf2e5b0b652ead6933e3655314cd8ce87d530e40663524fa30e89df07ac64736f6c63430008100033",
  "devdoc": {
    "kind": "dev",
    "methods": {},
    "version": 1
  },
  "userdoc": {
    "kind": "user",
    "methods": {},
    "version": 1
  },
  "storageLayout": {
    "storage": [
      {
        "astId": 1069,
        "contract": "contracts/Counter.sol:Counter",
        "label": "count",
        "offset": 0,
        "slot": "0",
        "type": "t_uint256"
      }
    ],
    "types": {
      "t_uint256": {
        "encoding": "inplace",
        "label": "uint256",
        "numberOfBytes": "32"
      }
    }
  }
}