{
  "address": "0x63cFF1Eba07e33A3b8ACa7c4Aa28E6aEa1638dbe",
  "abi": [
    {
      "anonymous": false,
      "inputs": [
        {
          "indexed": true,
          "internalType": "uint256",
          "name": "balance",
          "type": "uint256"
        }
      ],
      "name": "LogBalance",
      "type": "event"
    },
    {
      "anonymous": false,
      "inputs": [
        {
          "indexed": true,
          "internalType": "address",
          "name": "to",
          "type": "address"
        },
        {
          "indexed": false,
          "internalType": "uint256",
          "name": "amount",
          "type": "uint256"
        }
      ],
      "name": "LogSendToFriend",
      "type": "event"
    },
    {
      "inputs": [],
      "name": "emitBalance",
      "outputs": [],
      "stateMutability": "nonpayable",
      "type": "function"
    },
    {
      "inputs": [
        {
          "internalType": "address",
          "name": "_token",
          "type": "address"
        },
        {
          "internalType": "address",
          "name": "_to",
          "type": "address"
        },
        {
          "internalType": "uint256",
          "name": "_amount",
          "type": "uint256"
        }
      ],
      "name": "sendToFriend",
      "outputs": [],
      "stateMutability": "nonpayable",
      "type": "function"
    }
  ],
  "transactionHash": "0x231dc0b53281646977a768dd7786c67244e8156429714bfaf78af235e2ba83f0",
  "args": [],
  "numDeployments": 4,
  "solcInputHash": "561dcf2388b3c58c23d55d9cb97e89a5",
  "bytecode": "0x608060405234801561001057600080fd5b50610aa6806100206000396000f3fe608060405234801561001057600080fd5b50600436106100365760003560e01c8063a9cc09271461003b578063ae53dcae14610045575b600080fd5b610043610058565b005b6100436100533660046108dc565b610135565b73abcc9b596420a9e9172fd5938620e265a0f9df923314610100576040517f08c379a000000000000000000000000000000000000000000000000000000000815260206004820152602260248201527f47656c61746f52656c6179436f6e746578742e6f6e6c7947656c61746f52656c60448201527f617900000000000000000000000000000000000000000000000000000000000060648201526084015b60405180910390fd5b6101086102b8565b60405147907f8d9fc242eead7aebf4b509c32519beb6e2975a572c06310f797da4bd7f1ffab690600090a2565b73abcc9b596420a9e9172fd5938620e265a0f9df9233146101d8576040517f08c379a000000000000000000000000000000000000000000000000000000000815260206004820152602260248201527f47656c61746f52656c6179436f6e746578742e6f6e6c7947656c61746f52656c60448201527f617900000000000000000000000000000000000000000000000000000000000060648201526084016100f7565b6101e06102b8565b7fffffffffffffffffffffffff111111111111111111111111111111111111111273ffffffffffffffffffffffffffffffffffffffff8416016102425761023d73ffffffffffffffffffffffffffffffffffffffff8316826102f2565b610263565b61026373ffffffffffffffffffffffffffffffffffffffff84168383610451565b8173ffffffffffffffffffffffffffffffffffffffff167faffb35b6deb845951c48e85e4d26cff0e73e9aed6b213589f309becd984b6bd5826040516102ab91815260200190565b60405180910390a2505050565b6102f06102c36104de565b6102cb61050a565b6102d3610531565b73ffffffffffffffffffffffffffffffffffffffff169190610540565b565b8047101561035c576040517f08c379a000000000000000000000000000000000000000000000000000000000815260206004820152601d60248201527f416464726573733a20696e73756666696369656e742062616c616e636500000060448201526064016100f7565b60008273ffffffffffffffffffffffffffffffffffffffff168260405160006040518083038185875af1925050503d80600081146103b6576040519150601f19603f3d011682016040523d82523d6000602084013e6103bb565b606091505b505090508061044c576040517f08c379a000000000000000000000000000000000000000000000000000000000815260206004820152603a60248201527f416464726573733a20756e61626c6520746f2073656e642076616c75652c207260448201527f6563697069656e74206d6179206861766520726576657274656400000000000060648201526084016100f7565b505050565b6040805173ffffffffffffffffffffffffffffffffffffffff8416602482015260448082018490528251808303909101815260649091019091526020810180517bffffffffffffffffffffffffffffffffffffffffffffffffffffffff167fa9059cbb0000000000000000000000000000000000000000000000000000000017905261044c9084906105a9565b600080366104ed60608261091d565b6104f892829061095d565b8101906105059190610987565b905090565b6000803661051960208261091d565b61052492829061095d565b81019061050591906109a4565b600080366104ed60408261091d565b8060000361054d57505050565b73ffffffffffffffffffffffffffffffffffffffff831673eeeeeeeeeeeeeeeeeeeeeeeeeeeeeeeeeeeeeeee1461059f5761044c73ffffffffffffffffffffffffffffffffffffffff84168383610451565b61044c82826102f2565b600061060b826040518060400160405280602081526020017f5361666545524332303a206c6f772d6c6576656c2063616c6c206661696c65648152508573ffffffffffffffffffffffffffffffffffffffff166106b59092919063ffffffff16565b80519091501561044c578080602001905181019061062991906109bd565b61044c576040517f08c379a000000000000000000000000000000000000000000000000000000000815260206004820152602a60248201527f5361666545524332303a204552433230206f7065726174696f6e20646964206e60448201527f6f7420737563636565640000000000000000000000000000000000000000000060648201526084016100f7565b60606106c484846000856106ce565b90505b9392505050565b606082471015610760576040517f08c379a000000000000000000000000000000000000000000000000000000000815260206004820152602660248201527f416464726573733a20696e73756666696369656e742062616c616e636520666f60448201527f722063616c6c000000000000000000000000000000000000000000000000000060648201526084016100f7565b73ffffffffffffffffffffffffffffffffffffffff85163b6107de576040517f08c379a000000000000000000000000000000000000000000000000000000000815260206004820152601d60248201527f416464726573733a2063616c6c20746f206e6f6e2d636f6e747261637400000060448201526064016100f7565b6000808673ffffffffffffffffffffffffffffffffffffffff1685876040516108079190610a03565b60006040518083038185875af1925050503d8060008114610844576040519150601f19603f3d011682016040523d82523d6000602084013e610849565b606091505b5091509150610859828286610864565b979650505050505050565b606083156108735750816106c7565b8251156108835782518084602001fd5b816040517f08c379a00000000000000000000000000000000000000000000000000000000081526004016100f79190610a1f565b73ffffffffffffffffffffffffffffffffffffffff811681146108d957600080fd5b50565b6000806000606084860312156108f157600080fd5b83356108fc816108b7565b9250602084013561090c816108b7565b929592945050506040919091013590565b81810381811115610957577f4e487b7100000000000000000000000000000000000000000000000000000000600052601160045260246000fd5b92915050565b6000808585111561096d57600080fd5b8386111561097a57600080fd5b5050820193919092039150565b60006020828403121561099957600080fd5b81356106c7816108b7565b6000602082840312156109b657600080fd5b5035919050565b6000602082840312156109cf57600080fd5b815180151581146106c757600080fd5b60005b838110156109fa5781810151838201526020016109e2565b50506000910152565b60008251610a158184602087016109df565b9190910192915050565b6020815260008251806020840152610a3e8160408501602087016109df565b601f017fffffffffffffffffffffffffffffffffffffffffffffffffffffffffffffffe016919091016040019291505056fea2646970667358221220f31df4528ef547c00b3ae67a806367174d7c74584bd2439cbe7d6fae6fe1572364736f6c63430008100033",
  "devdoc": {
    "kind": "dev",
    "methods": {},
    "version": 1
  },
  "userdoc": {
    "kind": "user",
    "methods": {},
    "version": 1
  },
  "storageLayout": {
    "storage": [],
    "types": null
  }
}