{
  "address": "0xc68090bE5e24847c52986A804f5bC0E63F57e84c",
  "abi": [
    {
      "anonymous": false,
      "inputs": [
        {
          "indexed": false,
          "internalType": "uint256",
          "name": "newCounterValue",
          "type": "uint256"
        }
      ],
      "name": "IncrementCounter",
      "type": "event"
    },
    {
      "inputs": [],
      "name": "counter",
      "outputs": [
        {
          "internalType": "uint256",
          "name": "",
          "type": "uint256"
        }
      ],
      "stateMutability": "view",
      "type": "function"
    },
    {
      "inputs": [],
      "name": "increment",
      "outputs": [],
      "stateMutability": "nonpayable",
      "type": "function"
    }
  ],
  "transactionHash": "0xdae22bdf55650e2025df686b586d89e61d4757d7d0f578739a75c499b2f8b7da",
  "args": [],
  "numDeployments": 1,
  "solcInputHash": "e62edb5a7561ea7d42625b238864fc67",
  "bytecode": "0x608060405234801561001057600080fd5b50610146806100206000396000f3fe608060405234801561001057600080fd5b50600436106100365760003560e01c806361bc221a1461003b578063d09de08a14610056575b600080fd5b61004460005481565b60405190815260200160405180910390f35b61005e610060565b005b60008054908061006f836100b1565b91905055507f4382a1e4a9e9231ff550d61caf84a106bd15d21a9b153c49ad2cafbc97a7d3506000546040516100a791815260200190565b60405180910390a1565b60007fffffffffffffffffffffffffffffffffffffffffffffffffffffffffffffffff8203610109577f4e487b7100000000000000000000000000000000000000000000000000000000600052601160045260246000fd5b506001019056fea2646970667358221220f327d8bd0108acb5718e3172c224654fd47557c7e48dfda701805a1a30bf2fef64736f6c63430008110033",
  "devdoc": {
    "kind": "dev",
    "methods": {},
    "version": 1
  },
  "userdoc": {
    "kind": "user",
    "methods": {},
    "version": 1
  },
  "storageLayout": {
    "storage": [
      {
        "astId": 3,
        "contract": "contracts/SimpleCounter.sol:SimpleCounter",
        "label": "counter",
        "offset": 0,
        "slot": "0",
        "type": "t_uint256"
      }
    ],
    "types": {
      "t_uint256": {
        "encoding": "inplace",
        "label": "uint256",
        "numberOfBytes": "32"
      }
    }
  }
}