{
  "address": "0xF99c73455a92Bd88FD18726De1869060943D0a7f",
  "abi": [
    {
      "inputs": [
        {
          "internalType": "address",
          "name": "trustedForwarder",
          "type": "address"
        }
      ],
      "stateMutability": "nonpayable",
      "type": "constructor"
    },
    {
      "anonymous": false,
      "inputs": [
        {
          "indexed": false,
          "internalType": "address",
          "name": "_msgSender",
          "type": "address"
        }
      ],
      "name": "IncrementContextCounter",
      "type": "event"
    },
    {
      "inputs": [
        {
          "internalType": "address",
          "name": "",
          "type": "address"
        }
      ],
      "name": "contextCounter",
      "outputs": [
        {
          "internalType": "uint256",
          "name": "",
          "type": "uint256"
        }
      ],
      "stateMutability": "view",
      "type": "function"
    },
    {
      "inputs": [],
      "name": "incrementContext",
      "outputs": [],
      "stateMutability": "nonpayable",
      "type": "function"
    },
    {
      "inputs": [
        {
          "internalType": "address",
          "name": "forwarder",
          "type": "address"
        }
      ],
      "name": "isTrustedForwarder",
      "outputs": [
        {
          "internalType": "bool",
          "name": "",
          "type": "bool"
        }
      ],
      "stateMutability": "view",
      "type": "function"
    }
  ],
  "transactionHash": "0xe7a32170e2cf54ee336dd355e9a56f57ad1a4130c6c8d71236a72498427ffff7",
  "args": [
    "0xaBcC9b596420A9E9172FD5938620E265a0f9Df92"
  ],
  "numDeployments": 1,
  "solcInputHash": "1d0e92572021b342bbc064c96baad83e",
  "bytecode": "0x60a060405234801561001057600080fd5b5060405161041038038061041083398101604081905261002f91610040565b6001600160a01b0316608052610070565b60006020828403121561005257600080fd5b81516001600160a01b038116811461006957600080fd5b9392505050565b6080516103796100976000396000818160560152818160e2015261023c01526103796000f3fe608060405234801561001057600080fd5b50600436106100415760003560e01c8063572b6c051461004657806382b76168146100a8578063f69c0ac1146100d6575b600080fd5b6100936100543660046102a7565b7f000000000000000000000000000000000000000000000000000000000000000073ffffffffffffffffffffffffffffffffffffffff90811691161490565b60405190151581526020015b60405180910390f35b6100c86100b63660046102a7565b60006020819052908152604090205481565b60405190815260200161009f565b6100de6100e0565b005b7f000000000000000000000000000000000000000000000000000000000000000073ffffffffffffffffffffffffffffffffffffffff1633146101a9576040517f08c379a000000000000000000000000000000000000000000000000000000000815260206004820152602260248201527f4f6e6c792063616c6c61626c65206279205472757374656420466f727761726460448201527f6572000000000000000000000000000000000000000000000000000000000000606482015260840160405180910390fd5b60006101b3610238565b73ffffffffffffffffffffffffffffffffffffffff811660009081526020819052604081208054929350906101e7836102e4565b909155505060405173ffffffffffffffffffffffffffffffffffffffff821681527fea2bfe80062c6394f8f8d5804cafdf4b2ff1c2b5feefccbb11233dc843632d0a9060200160405180910390a150565b60007f000000000000000000000000000000000000000000000000000000000000000073ffffffffffffffffffffffffffffffffffffffff1633036102a257507fffffffffffffffffffffffffffffffffffffffffffffffffffffffffffffffec36013560601c90565b503390565b6000602082840312156102b957600080fd5b813573ffffffffffffffffffffffffffffffffffffffff811681146102dd57600080fd5b9392505050565b60007fffffffffffffffffffffffffffffffffffffffffffffffffffffffffffffffff820361033c577f4e487b7100000000000000000000000000000000000000000000000000000000600052601160045260246000fd5b506001019056fea2646970667358221220d1a11ad15c84e61c924b1c122a8896f9e758ffcd5215de911814e347d77eb9e064736f6c63430008100033",
  "devdoc": {
    "kind": "dev",
    "methods": {},
    "version": 1
  },
  "userdoc": {
    "kind": "user",
    "methods": {},
    "version": 1
  },
  "storageLayout": {
    "storage": [
      {
        "astId": 1735,
        "contract": "contracts/CounterERC2771.sol:CounterERC2771",
        "label": "contextCounter",
        "offset": 0,
        "slot": "0",
        "type": "t_mapping(t_address,t_uint256)"
      }
    ],
    "types": {
      "t_address": {
        "encoding": "inplace",
        "label": "address",
        "numberOfBytes": "20"
      },
      "t_mapping(t_address,t_uint256)": {
        "encoding": "mapping",
        "key": "t_address",
        "label": "mapping(address => uint256)",
        "numberOfBytes": "32",
        "value": "t_uint256"
      },
      "t_uint256": {
        "encoding": "inplace",
        "label": "uint256",
        "numberOfBytes": "32"
      }
    }
  }
}