{
  "address": "0x6FDc2a52730C8BC1F9852525B764958CF5A8cCef",
  "abi": [
    {
      "anonymous": false,
      "inputs": [
        {
          "indexed": true,
          "internalType": "uint256",
          "name": "balance",
          "type": "uint256"
        }
      ],
      "name": "LogBalance",
      "type": "event"
    },
    {
      "anonymous": false,
      "inputs": [
        {
          "indexed": true,
          "internalType": "address",
          "name": "to",
          "type": "address"
        },
        {
          "indexed": false,
          "internalType": "uint256",
          "name": "amount",
          "type": "uint256"
        }
      ],
      "name": "LogSendToFriend",
      "type": "event"
    },
    {
      "inputs": [],
      "name": "balanceOf",
      "outputs": [],
      "stateMutability": "nonpayable",
      "type": "function"
    },
    {
      "inputs": [
        {
          "internalType": "address",
          "name": "_token",
          "type": "address"
        },
        {
          "internalType": "address",
          "name": "_to",
          "type": "address"
        },
        {
          "internalType": "uint256",
          "name": "_amount",
          "type": "uint256"
        }
      ],
      "name": "sendToFriend",
      "outputs": [],
      "stateMutability": "nonpayable",
      "type": "function"
    }
  ],
  "transactionHash": "0x8f29da40ae88630cf15e9ce5d3ce52ea5ad24b4088f21aa2c9e8954314e7ff9a",
  "args": [],
  "numDeployments": 2,
  "solcInputHash": "f01677e6873e466164be3c2210da61c7",
  "bytecode": "0x608060405234801561001057600080fd5b50610a2e806100206000396000f3fe608060405234801561001057600080fd5b50600436106100365760003560e01c8063722713f71461003b578063ae53dcae14610045575b600080fd5b610043610058565b005b610043610053366004610864565b610135565b73abcc9b596420a9e9172fd5938620e265a0f9df923314610100576040517f08c379a000000000000000000000000000000000000000000000000000000000815260206004820152602260248201527f47656c61746f52656c6179436f6e746578742e6f6e6c7947656c61746f52656c60448201527f617900000000000000000000000000000000000000000000000000000000000060648201526084015b60405180910390fd5b610108610240565b60405147907f8d9fc242eead7aebf4b509c32519beb6e2975a572c06310f797da4bd7f1ffab690600090a2565b73abcc9b596420a9e9172fd5938620e265a0f9df9233146101d8576040517f08c379a000000000000000000000000000000000000000000000000000000000815260206004820152602260248201527f47656c61746f52656c6179436f6e746578742e6f6e6c7947656c61746f52656c60448201527f617900000000000000000000000000000000000000000000000000000000000060648201526084016100f7565b6101e0610240565b6101eb83838361027a565b8173ffffffffffffffffffffffffffffffffffffffff167faffb35b6deb845951c48e85e4d26cff0e73e9aed6b213589f309becd984b6bd58260405161023391815260200190565b60405180910390a2505050565b61027861024b61030c565b610253610338565b61025b61035f565b73ffffffffffffffffffffffffffffffffffffffff16919061036e565b565b6040805173ffffffffffffffffffffffffffffffffffffffff8416602482015260448082018490528251808303909101815260649091019091526020810180517bffffffffffffffffffffffffffffffffffffffffffffffffffffffff167fa9059cbb000000000000000000000000000000000000000000000000000000001790526103079084906103d7565b505050565b6000803661031b6060826108a5565b6103269282906108e5565b810190610333919061090f565b905090565b600080366103476020826108a5565b6103529282906108e5565b810190610333919061092c565b6000803661031b6040826108a5565b8060000361037b57505050565b73ffffffffffffffffffffffffffffffffffffffff831673eeeeeeeeeeeeeeeeeeeeeeeeeeeeeeeeeeeeeeee146103cd5761030773ffffffffffffffffffffffffffffffffffffffff8416838361027a565b61030782826104e3565b6000610439826040518060400160405280602081526020017f5361666545524332303a206c6f772d6c6576656c2063616c6c206661696c65648152508573ffffffffffffffffffffffffffffffffffffffff1661063d9092919063ffffffff16565b80519091501561030757808060200190518101906104579190610945565b610307576040517f08c379a000000000000000000000000000000000000000000000000000000000815260206004820152602a60248201527f5361666545524332303a204552433230206f7065726174696f6e20646964206e60448201527f6f7420737563636565640000000000000000000000000000000000000000000060648201526084016100f7565b8047101561054d576040517f08c379a000000000000000000000000000000000000000000000000000000000815260206004820152601d60248201527f416464726573733a20696e73756666696369656e742062616c616e636500000060448201526064016100f7565b60008273ffffffffffffffffffffffffffffffffffffffff168260405160006040518083038185875af1925050503d80600081146105a7576040519150601f19603f3d011682016040523d82523d6000602084013e6105ac565b606091505b5050905080610307576040517f08c379a000000000000000000000000000000000000000000000000000000000815260206004820152603a60248201527f416464726573733a20756e61626c6520746f2073656e642076616c75652c207260448201527f6563697069656e74206d6179206861766520726576657274656400000000000060648201526084016100f7565b606061064c8484600085610656565b90505b9392505050565b6060824710156106e8576040517f08c379a000000000000000000000000000000000000000000000000000000000815260206004820152602660248201527f416464726573733a20696e73756666696369656e742062616c616e636520666f60448201527f722063616c6c000000000000000000000000000000000000000000000000000060648201526084016100f7565b73ffffffffffffffffffffffffffffffffffffffff85163b610766576040517f08c379a000000000000000000000000000000000000000000000000000000000815260206004820152601d60248201527f416464726573733a2063616c6c20746f206e6f6e2d636f6e747261637400000060448201526064016100f7565b6000808673ffffffffffffffffffffffffffffffffffffffff16858760405161078f919061098b565b60006040518083038185875af1925050503d80600081146107cc576040519150601f19603f3d011682016040523d82523d6000602084013e6107d1565b606091505b50915091506107e18282866107ec565b979650505050505050565b606083156107fb57508161064f565b82511561080b5782518084602001fd5b816040517f08c379a00000000000000000000000000000000000000000000000000000000081526004016100f791906109a7565b73ffffffffffffffffffffffffffffffffffffffff8116811461086157600080fd5b50565b60008060006060848603121561087957600080fd5b83356108848161083f565b925060208401356108948161083f565b929592945050506040919091013590565b818103818111156108df577f4e487b7100000000000000000000000000000000000000000000000000000000600052601160045260246000fd5b92915050565b600080858511156108f557600080fd5b8386111561090257600080fd5b5050820193919092039150565b60006020828403121561092157600080fd5b813561064f8161083f565b60006020828403121561093e57600080fd5b5035919050565b60006020828403121561095757600080fd5b8151801515811461064f57600080fd5b60005b8381101561098257818101518382015260200161096a565b50506000910152565b6000825161099d818460208701610967565b9190910192915050565b60208152600082518060208401526109c6816040850160208701610967565b601f017fffffffffffffffffffffffffffffffffffffffffffffffffffffffffffffffe016919091016040019291505056fea2646970667358221220e0b59902eacb2e0f54b8c43066a330ebbd65263bb58655d878ca0451636b03db64736f6c63430008100033",
  "devdoc": {
    "kind": "dev",
    "methods": {},
    "version": 1
  },
  "userdoc": {
    "kind": "user",
    "methods": {},
    "version": 1
  },
  "storageLayout": {
    "storage": [],
    "types": null
  }
}