{
  "address": "0xF99c73455a92Bd88FD18726De1869060943D0a7f",
  "abi": [
    {
      "inputs": [
        {
          "internalType": "address",
          "name": "trustedForwarder",
          "type": "address"
        }
      ],
      "stateMutability": "nonpayable",
      "type": "constructor"
    },
    {
      "anonymous": false,
      "inputs": [
        {
          "indexed": false,
          "internalType": "address",
          "name": "_msgSender",
          "type": "address"
        }
      ],
      "name": "IncrementContextCounter",
      "type": "event"
    },
    {
      "inputs": [
        {
          "internalType": "address",
          "name": "",
          "type": "address"
        }
      ],
      "name": "contextCounter",
      "outputs": [
        {
          "internalType": "uint256",
          "name": "",
          "type": "uint256"
        }
      ],
      "stateMutability": "view",
      "type": "function"
    },
    {
      "inputs": [
        {
          "internalType": "address",
          "name": "_msgSender",
          "type": "address"
        }
      ],
      "name": "currentContextCounter",
      "outputs": [
        {
          "internalType": "uint256",
          "name": "",
          "type": "uint256"
        }
      ],
      "stateMutability": "view",
      "type": "function"
    },
    {
      "inputs": [],
      "name": "incrementContext",
      "outputs": [],
      "stateMutability": "nonpayable",
      "type": "function"
    },
    {
      "inputs": [
        {
          "internalType": "address",
          "name": "forwarder",
          "type": "address"
        }
      ],
      "name": "isTrustedForwarder",
      "outputs": [
        {
          "internalType": "bool",
          "name": "",
          "type": "bool"
        }
      ],
      "stateMutability": "view",
      "type": "function"
    }
  ],
  "transactionHash": "0xa7b2d2974b679f1df4efb6f0f24b02798ca60b19c68467ec1433876269765741",
  "args": [
    "0xaBcC9b596420A9E9172FD5938620E265a0f9Df92"
  ],
  "numDeployments": 1,
  "solcInputHash": "c0062b00c137591317b7f53c6bb14698",
  "bytecode": "0x60a060405234801561001057600080fd5b5060405161045238038061045283398101604081905261002f91610040565b6001600160a01b0316608052610070565b60006020828403121561005257600080fd5b81516001600160a01b038116811461006957600080fd5b9392505050565b6080516103ba6100986000396000818160aa01528181610123015261027d01526103ba6000f3fe608060405234801561001057600080fd5b506004361061004c5760003560e01c80631153ca2514610051578063572b6c051461009a57806382b76168146100f7578063f69c0ac114610117575b600080fd5b61008761005f3660046102e8565b73ffffffffffffffffffffffffffffffffffffffff1660009081526020819052604090205490565b6040519081526020015b60405180910390f35b6100e76100a83660046102e8565b7f000000000000000000000000000000000000000000000000000000000000000073ffffffffffffffffffffffffffffffffffffffff90811691161490565b6040519015158152602001610091565b6100876101053660046102e8565b60006020819052908152604090205481565b61011f610121565b005b7f000000000000000000000000000000000000000000000000000000000000000073ffffffffffffffffffffffffffffffffffffffff1633146101ea576040517f08c379a000000000000000000000000000000000000000000000000000000000815260206004820152602260248201527f4f6e6c792063616c6c61626c65206279205472757374656420466f727761726460448201527f6572000000000000000000000000000000000000000000000000000000000000606482015260840160405180910390fd5b60006101f4610279565b73ffffffffffffffffffffffffffffffffffffffff8116600090815260208190526040812080549293509061022883610325565b909155505060405173ffffffffffffffffffffffffffffffffffffffff821681527fea2bfe80062c6394f8f8d5804cafdf4b2ff1c2b5feefccbb11233dc843632d0a9060200160405180910390a150565b60007f000000000000000000000000000000000000000000000000000000000000000073ffffffffffffffffffffffffffffffffffffffff1633036102e357507fffffffffffffffffffffffffffffffffffffffffffffffffffffffffffffffec36013560601c90565b503390565b6000602082840312156102fa57600080fd5b813573ffffffffffffffffffffffffffffffffffffffff8116811461031e57600080fd5b9392505050565b60007fffffffffffffffffffffffffffffffffffffffffffffffffffffffffffffffff820361037d577f4e487b7100000000000000000000000000000000000000000000000000000000600052601160045260246000fd5b506001019056fea2646970667358221220988e400ebb00bc983f199de1a8a982f2f3b44db1f267486b32d26cb79b04c2ce64736f6c63430008100033",
  "devdoc": {
    "kind": "dev",
    "methods": {},
    "version": 1
  },
  "userdoc": {
    "kind": "user",
    "methods": {},
    "version": 1
  },
  "storageLayout": {
    "storage": [
      {
        "astId": 110,
        "contract": "contracts/CounterERC2771.sol:CounterERC2771",
        "label": "contextCounter",
        "offset": 0,
        "slot": "0",
        "type": "t_mapping(t_address,t_uint256)"
      }
    ],
    "types": {
      "t_address": {
        "encoding": "inplace",
        "label": "address",
        "numberOfBytes": "20"
      },
      "t_mapping(t_address,t_uint256)": {
        "encoding": "mapping",
        "key": "t_address",
        "label": "mapping(address => uint256)",
        "numberOfBytes": "32",
        "value": "t_uint256"
      },
      "t_uint256": {
        "encoding": "inplace",
        "label": "uint256",
        "numberOfBytes": "32"
      }
    }
  }
}