{
  "address": "0x26a7018E78a03d9a874F4082B6fcFc4Eb4449690",
  "abi": [
    {
      "anonymous": false,
      "inputs": [
        {
          "indexed": false,
          "internalType": "uint256",
          "name": "newCounterValue",
          "type": "uint256"
        }
      ],
      "name": "IncrementCounter",
      "type": "event"
    },
    {
      "inputs": [],
      "name": "counter",
      "outputs": [
        {
          "internalType": "uint256",
          "name": "",
          "type": "uint256"
        }
      ],
      "stateMutability": "view",
      "type": "function"
    },
    {
      "inputs": [],
      "name": "increment",
      "outputs": [],
      "stateMutability": "nonpayable",
      "type": "function"
    }
  ],
  "transactionHash": "0xbe50a72e502f6ddc4eddadf9dc7ca5e113a13d1950a77cc084d077d2c0ffff8b",
  "args": [],
  "numDeployments": 1,
  "solcInputHash": "296ab1ba0e3ef58f55fc907e49fd3278",
  "bytecode": "0x608060405234801561001057600080fd5b50610960806100206000396000f3fe608060405234801561001057600080fd5b50600436106100365760003560e01c806361bc221a1461003b578063d09de08a14610056575b600080fd5b61004460005481565b60405190815260200160405180910390f35b61005e610060565b005b73abcc9b596420a9e9172fd5938620e265a0f9df923314610108576040517f08c379a000000000000000000000000000000000000000000000000000000000815260206004820152602260248201527f47656c61746f52656c6179436f6e746578742e6f6e6c7947656c61746f52656c60448201527f617900000000000000000000000000000000000000000000000000000000000060648201526084015b60405180910390fd5b610110610161565b60008054908061011f836107ad565b91905055507f4382a1e4a9e9231ff550d61caf84a106bd15d21a9b153c49ad2cafbc97a7d35060005460405161015791815260200190565b60405180910390a1565b61019961016c61019b565b6101746101aa565b61017c6101b4565b73ffffffffffffffffffffffffffffffffffffffff1691906101be565b565b60006101a561022c565b905090565b60006101a5610253565b60006101a561027a565b806000036101cb57505050565b73ffffffffffffffffffffffffffffffffffffffff831673eeeeeeeeeeeeeeeeeeeeeeeeeeeeeeeeeeeeeeee146102225761021d73ffffffffffffffffffffffffffffffffffffffff84168383610289565b505050565b61021d8282610316565b6000803661023b6060826107e5565b6102469282906107fe565b8101906101a59190610828565b600080366102626020826107e5565b61026d9282906107fe565b8101906101a5919061085e565b6000803661023b6040826107e5565b6040805173ffffffffffffffffffffffffffffffffffffffff8416602482015260448082018490528251808303909101815260649091019091526020810180517bffffffffffffffffffffffffffffffffffffffffffffffffffffffff167fa9059cbb0000000000000000000000000000000000000000000000000000000017905261021d908490610470565b80471015610380576040517f08c379a000000000000000000000000000000000000000000000000000000000815260206004820152601d60248201527f416464726573733a20696e73756666696369656e742062616c616e636500000060448201526064016100ff565b60008273ffffffffffffffffffffffffffffffffffffffff168260405160006040518083038185875af1925050503d80600081146103da576040519150601f19603f3d011682016040523d82523d6000602084013e6103df565b606091505b505090508061021d576040517f08c379a000000000000000000000000000000000000000000000000000000000815260206004820152603a60248201527f416464726573733a20756e61626c6520746f2073656e642076616c75652c207260448201527f6563697069656e74206d6179206861766520726576657274656400000000000060648201526084016100ff565b60006104d2826040518060400160405280602081526020017f5361666545524332303a206c6f772d6c6576656c2063616c6c206661696c65648152508573ffffffffffffffffffffffffffffffffffffffff1661057c9092919063ffffffff16565b80519091501561021d57808060200190518101906104f09190610877565b61021d576040517f08c379a000000000000000000000000000000000000000000000000000000000815260206004820152602a60248201527f5361666545524332303a204552433230206f7065726174696f6e20646964206e60448201527f6f7420737563636565640000000000000000000000000000000000000000000060648201526084016100ff565b606061058b8484600085610595565b90505b9392505050565b606082471015610627576040517f08c379a000000000000000000000000000000000000000000000000000000000815260206004820152602660248201527f416464726573733a20696e73756666696369656e742062616c616e636520666f60448201527f722063616c6c000000000000000000000000000000000000000000000000000060648201526084016100ff565b73ffffffffffffffffffffffffffffffffffffffff85163b6106a5576040517f08c379a000000000000000000000000000000000000000000000000000000000815260206004820152601d60248201527f416464726573733a2063616c6c20746f206e6f6e2d636f6e747261637400000060448201526064016100ff565b6000808673ffffffffffffffffffffffffffffffffffffffff1685876040516106ce91906108bd565b60006040518083038185875af1925050503d806000811461070b576040519150601f19603f3d011682016040523d82523d6000602084013e610710565b606091505b509150915061072082828661072b565b979650505050505050565b6060831561073a57508161058e565b82511561074a5782518084602001fd5b816040517f08c379a00000000000000000000000000000000000000000000000000000000081526004016100ff91906108d9565b7f4e487b7100000000000000000000000000000000000000000000000000000000600052601160045260246000fd5b60007fffffffffffffffffffffffffffffffffffffffffffffffffffffffffffffffff82036107de576107de61077e565b5060010190565b818103818111156107f8576107f861077e565b92915050565b6000808585111561080e57600080fd5b8386111561081b57600080fd5b5050820193919092039150565b60006020828403121561083a57600080fd5b813573ffffffffffffffffffffffffffffffffffffffff8116811461058e57600080fd5b60006020828403121561087057600080fd5b5035919050565b60006020828403121561088957600080fd5b8151801515811461058e57600080fd5b60005b838110156108b457818101518382015260200161089c565b50506000910152565b600082516108cf818460208701610899565b9190910192915050565b60208152600082518060208401526108f8816040850160208701610899565b601f017fffffffffffffffffffffffffffffffffffffffffffffffffffffffffffffffe016919091016040019291505056fea264697066735822122077a51555c93ccf7885e35d1edb14bf8043f0d10d8a3b519982aa6fd007b21e1864736f6c63430008110033",
  "devdoc": {
    "kind": "dev",
    "methods": {},
    "version": 1
  },
  "userdoc": {
    "kind": "user",
    "methods": {},
    "version": 1
  },
  "storageLayout": {
    "storage": [
      {
        "astId": 1763,
        "contract": "contracts/CounterRelayContext.sol:CounterRelayContext",
        "label": "counter",
        "offset": 0,
        "slot": "0",
        "type": "t_uint256"
      }
    ],
    "types": {
      "t_uint256": {
        "encoding": "inplace",
        "label": "uint256",
        "numberOfBytes": "32"
      }
    }
  }
}