{
  "address": "0x662b36Ee1272C0b222668737aa6Bb4Bc0C34b464",
  "abi": [
    {
      "inputs": [
        {
          "internalType": "address",
          "name": "relayer",
          "type": "address"
        }
      ],
      "stateMutability": "nonpayable",
      "type": "constructor"
    },
    {
      "anonymous": false,
      "inputs": [
        {
          "indexed": false,
          "internalType": "address",
          "name": "_msgSender",
          "type": "address"
        }
      ],
      "name": "IncrementContextCounter",
      "type": "event"
    },
    {
      "anonymous": false,
      "inputs": [],
      "name": "IncrementCounter",
      "type": "event"
    },
    {
      "inputs": [
        {
          "internalType": "address",
          "name": "",
          "type": "address"
        }
      ],
      "name": "contextCounter",
      "outputs": [
        {
          "internalType": "uint256",
          "name": "",
          "type": "uint256"
        }
      ],
      "stateMutability": "view",
      "type": "function"
    },
    {
      "inputs": [],
      "name": "counter",
      "outputs": [
        {
          "internalType": "uint256",
          "name": "",
          "type": "uint256"
        }
      ],
      "stateMutability": "view",
      "type": "function"
    },
    {
      "inputs": [
        {
          "internalType": "address",
          "name": "_msgSender",
          "type": "address"
        }
      ],
      "name": "currentContextCounter",
      "outputs": [
        {
          "internalType": "uint256",
          "name": "",
          "type": "uint256"
        }
      ],
      "stateMutability": "view",
      "type": "function"
    },
    {
      "inputs": [],
      "name": "currentCounter",
      "outputs": [
        {
          "internalType": "uint256",
          "name": "",
          "type": "uint256"
        }
      ],
      "stateMutability": "view",
      "type": "function"
    },
    {
      "inputs": [],
      "name": "increment",
      "outputs": [],
      "stateMutability": "nonpayable",
      "type": "function"
    },
    {
      "inputs": [],
      "name": "incrementContext",
      "outputs": [],
      "stateMutability": "nonpayable",
      "type": "function"
    },
    {
      "inputs": [],
      "name": "relayer",
      "outputs": [
        {
          "internalType": "address",
          "name": "",
          "type": "address"
        }
      ],
      "stateMutability": "view",
      "type": "function"
    }
  ],
  "transactionHash": "0x9bda82e300a3ee30103b92c95b54638ead1975a69de9e0005381c77b570b7f85",
  "args": [
    "0xaBcC9b596420A9E9172FD5938620E265a0f9Df92"
  ],
  "numDeployments": 1,
  "solcInputHash": "5ca605253c952b952e5676607766a0e8",
  "bytecode": "0x60a060405234801561001057600080fd5b50604051610c99380380610c9983398101604081905261002f91610040565b6001600160a01b0316608052610070565b60006020828403121561005257600080fd5b81516001600160a01b038116811461006957600080fd5b9392505050565b608051610bf96100a0600039600081816101010152818161015c01528181610270015261041d0152610bf96000f3fe608060405234801561001057600080fd5b506004361061007d5760003560e01c806382b761681161005b57806382b76168146100dc5780638406c079146100fc578063d09de08a14610148578063f69c0ac11461015257600080fd5b80631153ca25146100825780635763440b146100cb57806361bc221a146100d3575b600080fd5b6100b8610090366004610a55565b73ffffffffffffffffffffffffffffffffffffffff1660009081526001602052604090205490565b6040519081526020015b60405180910390f35b6000546100b8565b6100b860005481565b6100b86100ea366004610a55565b60016020526000908152604090205481565b6101237f000000000000000000000000000000000000000000000000000000000000000081565b60405173ffffffffffffffffffffffffffffffffffffffff90911681526020016100c2565b61015061015a565b005b61015061026e565b7f000000000000000000000000000000000000000000000000000000000000000073ffffffffffffffffffffffffffffffffffffffff163314610224576040517f08c379a000000000000000000000000000000000000000000000000000000000815260206004820152602160248201527f52656c61796572436f6e74657874455243323737312e6f6e6c7952656c61796560448201527f720000000000000000000000000000000000000000000000000000000000000060648201526084015b60405180910390fd5b61022c6103df565b600160008082825461023e9190610aa1565b90915550506040517f0ffca1dde64f1b803c88b9de47f8a44a693a20f2bd177e5f2592cffb738bd7d990600090a1565b7f000000000000000000000000000000000000000000000000000000000000000073ffffffffffffffffffffffffffffffffffffffff163314610333576040517f08c379a000000000000000000000000000000000000000000000000000000000815260206004820152602160248201527f52656c61796572436f6e74657874455243323737312e6f6e6c7952656c61796560448201527f7200000000000000000000000000000000000000000000000000000000000000606482015260840161021b565b600061033d610419565b905060018060008373ffffffffffffffffffffffffffffffffffffffff1673ffffffffffffffffffffffffffffffffffffffff168152602001908152602001600020600082825461038e9190610aa1565b909155505060405173ffffffffffffffffffffffffffffffffffffffff821681527fea2bfe80062c6394f8f8d5804cafdf4b2ff1c2b5feefccbb11233dc843632d0a9060200160405180910390a150565b6104176103ea610488565b6103f2610497565b6103fa6104be565b73ffffffffffffffffffffffffffffffffffffffff1691906104cd565b565b60007f000000000000000000000000000000000000000000000000000000000000000073ffffffffffffffffffffffffffffffffffffffff16331461045d57503390565b60003661046b601482610aba565b610476928290610acd565b8101906104839190610a55565b905090565b6000803661046b607482610aba565b600080366104a6603482610aba565b6104b1928290610acd565b8101906104839190610af7565b6000803661046b605482610aba565b806000036104da57505050565b73ffffffffffffffffffffffffffffffffffffffff831673eeeeeeeeeeeeeeeeeeeeeeeeeeeeeeeeeeeeeeee146105315761052c73ffffffffffffffffffffffffffffffffffffffff8416838361053b565b505050565b61052c82826105c8565b6040805173ffffffffffffffffffffffffffffffffffffffff8416602482015260448082018490528251808303909101815260649091019091526020810180517bffffffffffffffffffffffffffffffffffffffffffffffffffffffff167fa9059cbb0000000000000000000000000000000000000000000000000000000017905261052c908490610722565b80471015610632576040517f08c379a000000000000000000000000000000000000000000000000000000000815260206004820152601d60248201527f416464726573733a20696e73756666696369656e742062616c616e6365000000604482015260640161021b565b60008273ffffffffffffffffffffffffffffffffffffffff168260405160006040518083038185875af1925050503d806000811461068c576040519150601f19603f3d011682016040523d82523d6000602084013e610691565b606091505b505090508061052c576040517f08c379a000000000000000000000000000000000000000000000000000000000815260206004820152603a60248201527f416464726573733a20756e61626c6520746f2073656e642076616c75652c207260448201527f6563697069656e74206d61792068617665207265766572746564000000000000606482015260840161021b565b6000610784826040518060400160405280602081526020017f5361666545524332303a206c6f772d6c6576656c2063616c6c206661696c65648152508573ffffffffffffffffffffffffffffffffffffffff1661082e9092919063ffffffff16565b80519091501561052c57808060200190518101906107a29190610b10565b61052c576040517f08c379a000000000000000000000000000000000000000000000000000000000815260206004820152602a60248201527f5361666545524332303a204552433230206f7065726174696f6e20646964206e60448201527f6f74207375636365656400000000000000000000000000000000000000000000606482015260840161021b565b606061083d8484600085610847565b90505b9392505050565b6060824710156108d9576040517f08c379a000000000000000000000000000000000000000000000000000000000815260206004820152602660248201527f416464726573733a20696e73756666696369656e742062616c616e636520666f60448201527f722063616c6c0000000000000000000000000000000000000000000000000000606482015260840161021b565b73ffffffffffffffffffffffffffffffffffffffff85163b610957576040517f08c379a000000000000000000000000000000000000000000000000000000000815260206004820152601d60248201527f416464726573733a2063616c6c20746f206e6f6e2d636f6e7472616374000000604482015260640161021b565b6000808673ffffffffffffffffffffffffffffffffffffffff1685876040516109809190610b56565b60006040518083038185875af1925050503d80600081146109bd576040519150601f19603f3d011682016040523d82523d6000602084013e6109c2565b606091505b50915091506109d28282866109dd565b979650505050505050565b606083156109ec575081610840565b8251156109fc5782518084602001fd5b816040517f08c379a000000000000000000000000000000000000000000000000000000000815260040161021b9190610b72565b73ffffffffffffffffffffffffffffffffffffffff81168114610a5257600080fd5b50565b600060208284031215610a6757600080fd5b813561084081610a30565b7f4e487b7100000000000000000000000000000000000000000000000000000000600052601160045260246000fd5b80820180821115610ab457610ab4610a72565b92915050565b81810381811115610ab457610ab4610a72565b60008085851115610add57600080fd5b83861115610aea57600080fd5b5050820193919092039150565b600060208284031215610b0957600080fd5b5035919050565b600060208284031215610b2257600080fd5b8151801515811461084057600080fd5b60005b83811015610b4d578181015183820152602001610b35565b50506000910152565b60008251610b68818460208701610b32565b9190910192915050565b6020815260008251806020840152610b91816040850160208701610b32565b601f017fffffffffffffffffffffffffffffffffffffffffffffffffffffffffffffffe016919091016040019291505056fea2646970667358221220f1994a42e15b67e70cf6f6755a85736ef005b8a5ddfe9473c7f6c8103bb124ea64736f6c63430008100033",
  "devdoc": {
    "kind": "dev",
    "methods": {},
    "version": 1
  },
  "userdoc": {
    "kind": "user",
    "methods": {},
    "version": 1
  },
  "storageLayout": {
    "storage": [
      {
        "astId": 1172,
        "contract": "contracts/Counter.sol:Counter",
        "label": "counter",
        "offset": 0,
        "slot": "0",
        "type": "t_uint256"
      },
      {
        "astId": 1176,
        "contract": "contracts/Counter.sol:Counter",
        "label": "contextCounter",
        "offset": 0,
        "slot": "1",
        "type": "t_mapping(t_address,t_uint256)"
      }
    ],
    "types": {
      "t_address": {
        "encoding": "inplace",
        "label": "address",
        "numberOfBytes": "20"
      },
      "t_mapping(t_address,t_uint256)": {
        "encoding": "mapping",
        "key": "t_address",
        "label": "mapping(address => uint256)",
        "numberOfBytes": "32",
        "value": "t_uint256"
      },
      "t_uint256": {
        "encoding": "inplace",
        "label": "uint256",
        "numberOfBytes": "32"
      }
    }
  }
}